:020000040800F2
:10000000C81C0020490100087B230008891E000845
:1000100079230008490500082F410008000000006E
:10002000000000000000000000000000ED270008B4
:1000300009060008000000009126000811290008A8
:100040006301000863010008630100086301000800
:1000500063010008630100086301000863010008F0
:1000600063010008630100086301000863010008E0
:1000700063010008630100086301000863010008D0
:1000800063010008630100086301000863010008C0
:10009000B94000086301000863010008630100081B
:1000A00063010008630100086301000863010008A0
:1000B0006301000863010008630100086301000890
:1000C0006301000863010008630100086301000880
:1000D0006301000863010008630100086301000870
:1000E0006301000863010008630100086301000860
:1000F0006301000863010008630100086301000850
:10010000630100086301000863010008630100083F
:10011000630100086301000863010008630100082F
:10012000630100086301000863010008630100081F
:10013000DFF810D000F086F900480047954100082C
:10014000AFF30080C81C00200648804706480047DF
:10015000FEE7FEE7FEE7FEE7FEE7FEE7FEE7FEE777
:10016000FEE7FEE77729000831010008202A04DBBA
:10017000203A21FA02F00021704721FA02F3D04020
:10018000C2F12002914008431946704740EA01033A
:100190009B0703D009E008C9121F08C0042AFAD23D
:1001A00003E011F8013B00F8013B521EF9D2704701
:1001B000D2B201E000F8012B491EFBD270470022A9
:1001C000F6E710B513460A4604461946FFF7F0FF56
:1001D000204610BD2DE9FE4F81EA030404F00044DF
:1001E00021F0004100944FF0000B23F0004350EA4F
:1001F00001045ED052EA03045BD0C3F30A54C1F396
:100200000A552C44A4F2F3340194A0FB0254C1F328
:10021000130141F48011C3F3130343F4801301FB72
:10022000024400FB034E840A970A44EA815447EAD9
:100230008357A4FB076802958D0A05FB07854FEAE3
:10024000932C04FB0C542705029D4FEA065847EAFD
:100250001637B5EB08056EEB070C870E920E47EAD2
:10026000811742EA8312A7FB0201B6EB0B0164EB94
:1002700000042B0D43EA0C335E1844EB1C50DA46A5
:100280005146E7FB0201C5F313044FEA0B3343EA7F
:1002900014534FEA0432019C43EA0603A4F10C0410
:1002A0000294009CCDE900B400F07DF803B0BDE8F5
:1002B000F08F00200146F9E796230022114600F056
:1002C00035B8C1F30A5210B5C1F3130140F2FF3340
:1002D00041F480119A4201DA002010BD40F233430C
:1002E0009A42A2F2334203DC5242FFF73FFF10BDB5
:1002F000904010BD00F0004230F000400AD0C10D27
:1003000001F56071C0F3160042EA0151C2084007CE
:10031000114370470020014670470029A8BF70476D
:10032000401C490008BF20F00100704710B4B0FA2B
:1003300080FC00FA0CF050EA010404BF10BC7047C6
:1003400049B1CCF1200421FA04F411FA0CF118BFE0
:10035000012121430843A3EB0C01CB1D4FEA0061AF
:100360004FEA102042BF002010BC704700EBC35082
:1003700010440029A4BF10BC7047401C490008BFAE
:1003800020F0010010BC704710B5141E73F100047A
:1003900008DA401C41F1000192185B411A4301D177
:1003A00020F0010010BD2DE9F04D92469B4611B1A1
:1003B000B1FA81F202E0B0FA80F22032904600F009
:1003C00053F804460F4640EA0A0041EA0B0153463F
:1003D0005A46084313D0114653EA010019D0C8F118
:1003E00040025046FFF7C2FE05460E4650465946AB
:1003F000424600F039F8084305D0012004E02046C9
:100400003946BDE8F08D0020054346EAE0762C43EE
:1004100037430A986305E40AA0EB08000022FD0AAE
:1004200044EA47540A3002D500200146E9E70105B5
:1004300010196941DDE9084500196941BDE8F04D31
:10044000A2E70000064C074D06E0E06840F001031B
:1004500094E8070098471034AC42F6D3FFF76CFEDF
:100460003442000854420008202A04DB203A00FAF3
:1004700002F1002070479140C2F1200320FA03F3FB
:1004800019439040704770B58C1810F8015B15F057
:10049000070301D110F8013B2A1106D110F8012BF6
:1004A00003E010F8016B01F8016B5B1EF9D12B071B
:1004B00005D40023521E0DD401F8013BFAE710F8D1
:1004C000013BCB1A921C03E013F8015B01F8015BBE
:1004D000521EF9D5A142D8D3002070BD2DE9FF41AD
:1004E0008846DDE90A671C46154602A900F08EF829
:1004F00003A9404600F08AF8280A8DF8000034432A
:100500003C43200A8DF804008DF801508DF8054019
:1005100001AB6A4603A902A802F06AF904B0002000
:10052000BDE8F08110B59021802003F001FE9220FB
:1005300002F04AF94FF6FF7101EA0024932002F01D
:1005400043F9204480B210BDFEE700207047002030
:100550007047000010B500220549064802F0FEFA77
:1005600003490448143902F0F3FA002010BD0000DA
:10057000A4070020CC0200202DE9F0410D460446DE
:100580000146124802F0E4FA104802F0C5FA104E93
:1005900010490027307800B90F6000200E4B0A6820
:1005A00007E000BF00EB020E14F801CB03F80EC009
:1005B000401CD5F800C08445F4D80CEB020008605C
:1005C0001F54012030700020BDE8F081CC020020D3
:1005D0000400002010000020B0010020094A10B5DE
:1005E000D2F8B822D2F814220AB1012010BD0A466E
:1005F0000146044802F0B2FABDE81040014802F09A
:100600000BBB0000CC0200207047704710B50C46B1
:10061000FFF770FE054A064BFFF7DCFDFFF751FEC2
:10062000010C2170010A6170A07010BDB306690150
:100630004C00404070B5044600F018F90546601CB7
:1006400002D004480078044400F010F9401BA04296
:10065000FAD370BD140000202DE9F84FDFF8C891DF
:10066000002409F1040A0AF1040B23460F270BF1B9
:10067000040ED1E00125A54006EA0502AA4276D182
:10068000DFF8A8C14E68A6EB0C0866452BD00DDC40
:10069000032E34D005DC36B3012E19D0022E2FD113
:1006A0001BE0112E16D0122E2AD119E0B8F5881FA2
:1006B00019D006DCB8F5803F15D0B8F5801F1FD1E2
:1006C00011E0B8F5001F0ED0B8F5041F18D10AE0EC
:1006D000CB6815E0CB681B1D12E0CB6808330FE038
:1006E000CB680C330CE08B682BB1012B4FF0080367
:1006F00003D0456104E0042302E0056100E000232B
:10070000FF2A01D8064601E000F104064FEA8405FD
:1007100001D9A5F12005D6F8008007FA05FC28EAE2
:100720000C0803FA05F548EA0508C6F800804D688C
:10073000ED0070D53E4DAE6946F00106AE61AD6983
:1007400024F0030605F0010500953A4D06EB050C73
:10075000DCF80850A607360F07FA06F825EA080560
:10076000DFF8D480404503D14FF0000825E052E087
:10077000DFF8C880404502D14FF001081DE0DFF8E6
:10078000C080404502D14FF0020816E0DFF8B48087
:10079000404502D14FF003080FE0DFF8AC80404540
:1007A00002D14FF0040808E0DFF8A080404502D1F4
:1007B0004FF0050801E04FF0060808FA06F848EA8D
:1007C0000508CCF808804D68D9F80060ED034D4667
:1007D00001D5164300E096432E604D68DAF80060BC
:1007E000AD03554601D5164300E096432E604D6893
:1007F000DBF80060ED025D4601D5164300E096434C
:100800002E604D68DEF80060AD02754601D51643D6
:1008100000E096432E60641C0A681646E2407FF4AE
:1008200029AFBDE8F88F000000040140000011105E
:10083000001002400000014000080140000C01408F
:10084000001001400014014000180140001C01404C
:10085000C26821EA02030A4043EA0241016170478B
:100860000AB1016170470904FBE700000148806894
:10087000704700001400002070B5040025D094F8E3
:100880003D00002520B984F83C50204600F070FA65
:10089000242084F83D002068016821F001010160F6
:1008A0002068016841F4004101602068016821F47A
:1008B0000041016001F0FEF84D4A6168914201D8A3
:1008C0004C4900E04C49884201D2012070BD4B499F
:1008D0002368B0FBF1F15E6826F03F060E435E60D0
:1008E0006368934206D94FF4967359434FF47A7371
:1008F000B1FBF3F12368491C1E6A26F03F06314321
:1009000019626168914210D84900401EB0FBF1F2B3
:10091000521CC2F30B02042A01D2042022E0B0FBD5
:10092000F1F0401CC0F30B001CE0A268F2B301EB35
:10093000C10303EB0116431EB3FBF6F35B1C43F448
:1009400080431B0549D092B301EBC10202EB0111B8
:10095000401EB0FBF1F0401CC0F30B0040F480409F
:1009600040F400402168CA694CF6FF739A43104373
:10097000C861D4E9071001432068026822F0C00270
:1009800011430160D4E9030101432068826848F201
:10099000FF339A4311438160D4E90501084321687C
:1009A000CA6822F0FF021043C86001E00EE016E0C2
:1009B0002068016841F0010101602564202084F86D
:1009C0003D00256384F83E50002070BD01EB4106D8
:1009D000431EB3FBF6F35B1CB3E70120C2E701EB58
:1009E0004101401EB0FBF1F0401CC0F30B00B7E723
:1009F000A086010080841E0000093D0040420F00D7
:100A00002DE9F84F0025DDF82890984617468A46CC
:100A100004460095FFF72AFF064694F83D0020287B
:100A20007AD11923012283492046009601F02EFB3A
:100A30000028F5D194F83C0001286DD0012084F8FD
:100A40003C0020680168C90703D1016841F0010139
:100A500001602068016821F400610160222084F8AF
:100A60003D00102084F83E0025646762A4F82A80C7
:100A7000608D20857048E06233464A4651462046E4
:100A800001F01AFA00287DD1208DDFF8B0812027EF
:100A900068B1012814D00228206801681ED041F4F2
:100AA000806101602068416980690090B5E020683C
:100AB000416981690091016841F400710160ACE015
:100AC0002068016821F48061016072B62068416984
:100AD00081690091016841F400710AE041F400610C
:100AE000016072B62068416981690091016821F452
:100AF0008061016062B690E0032868D801280CD0BC
:100B000002284B464FF000024146204600960FD087
:100B100001F0BCFAB0BB10E08AE0324649462046FC
:100B200001F033FB70BB20680069616A08706BE0FC
:100B300001F0ACFA30BB72B634E02068016821F4F1
:100B40008061016072B620680069616A0870606A3D
:100B5000401C6062208D401E2085608D401E608597
:100B6000374846F2A8110068B0FBF1F0C0EBC000B6
:100B700000EB80000090401E009008D02068406983
:100B8000C04300E029E040070CD50098F3E744F8A3
:100B9000305F6773A573206940F02000206162B662
:100BA00025731AE02068016841F400710160206833
:100BB0000069616A0870606A401C6062218D491E8C
:100BC0002185618D491E618562B621681AE0324631
:100BD0004946204601F0D9FA10B10120BDE8F88F4E
:100BE00020680069616A0870606A401C6062218D3B
:100BF000491E2185618D491E618521684A69D2435C
:100C000052070AD409690170606A401C6062208D35
:100C1000401E2085608D401E6085208D00287FF459
:100C20006BAF84F83D7084F83E5084F83C50D5E7B3
:100C30000220D3E7020010000000FFFF04000100C3
:100C4000200000202DE9F84F1F4690468A460446B2
:100C5000DDF82890FFF70AFE054694F83D002028AD
:100C60007FD11923012240492046009501F00EFA58
:100C7000002876D194F83C00012872D0012084F835
:100C80003C0020680168C90703D1016841F00101F7
:100C900001602068016821F400610160212084F86E
:100CA0003D00102084F83E0000262664C4F824800D
:100CB0006785608D20852D48E0622B464A46514667
:100CC000204601F06FF990B9206841698069009071
:100CD00036E02A464946204601F08AFA50B1206C97
:100CE000042804D12068016841F4007101600120EA
:100CF000BDE8F88F606A216800780861606A401C6E
:100D00006062618D491E6185218D491E89B22185F0
:100D100022685369DB435B070BD451B10078106143
:100D2000606A401C6062608D401E6085208D401EA0
:100D300020852A464946204601F082F90028CED176
:100D4000208D0028C5D154F83D0B016841F4007195
:100D50000160202004F81E09E67766770020C7E7C7
:100D6000FFE70220C4E70000020010000000FFFFC0
:100D700010B586B0002100910191029103910068A5
:100D8000104988421BD1104CA06940F00800A061B6
:100D9000A069694600F0080004904FF4406000909C
:100DA00012200190032003900848FFF755FCE069EA
:100DB00040F48000E061E06900F48000049006B037
:100DC00010BD00000058004000100240000C01401F
:100DD0000248816802781144816070471400002045
:100DE000074810B5016841F010010160032000F0D0
:100DF00075F8002000F006F800F024F8002010BD7F
:100E00000020024070B50D4D04464FF47A712878E9
:100E1000B1FBF0F00A490968B1FBF0F001F020F8ED
:100E200048B9102C07D200222146501E00F036F897
:100E300000206C6070BD012070BD00001400002017
:100E4000200000200C4808B5816941F00101816152
:100E5000816901F001010091C16941F08051C161D6
:100E6000C06900F0805000900448416821F0E061C2
:100E700041F00071416008BD0010024000000140D7
:100E8000002809DB00F01F02012191404009800089
:100E900000F1E020C0F8001170470000F0B40E4BE4
:100EA0001B680C46C3F30223C3F10705042D00D9C8
:100EB0000425191D072901D2002300E0DB1E0126AD
:100EC00006FA05F1491E214099409E40761E1640C3
:100ED0003143F0BC03F03EB90CED00E0064900F0F0
:100EE000070208684FF6FF03184040EA0220034A51
:100EF00010430860704700000CED00E00000FA05A8
:100F000010B50C0607D501F0070101EB810100EBDC
:100F1000C100283005E001EB810100EBC10000F5C4
:100F2000B47099B232B1012202730181190C41816E
:100F3000002010BD00220273C180F9E7704701EB69
:100F4000810200EBC202D0F8E802D26B02F00FB8C7
:100F500001EB810200EBC202D0F8E802D2F87C215A
:100F600002F068B870B504460B0601F0070000EB0C
:100F7000800104EBC1014FF001024FF0000503D5E1
:100F800081F82920283103E081F8695101F5B47115
:100F9000087094F8A802012808D084F8A8222068D4
:100FA00002F088FC84F8A852002070BD022070BDB9
:100FB00070B5044601F00F006268904201D901202B
:100FC00070BD0B0601F0070000EB800104EBC101CE
:100FD0004FF001024FF0000503D581F82920283198
:100FE00003E081F8695101F5B4718D70087094F8CF
:100FF000A802012808D084F8A822206802F0F7FC93
:1010000084F8A852002070BD022070BD2DE9F05F69
:1010100004685FEA424C0B788D69B4F850C04FF019
:1010200000064BF68F7948F2800A48F68F7B48F22B
:10103000C00E4FF480672AD54FF0020808EBC308B2
:10104000C44407EB4C07E45BC4F30904A54203D393
:101050002D1B8D6101D00BE08E61066836F82350A0
:1010600005EA090585F4005545EA0A0526F82350E6
:10107000520609D50D78036833F8252002EA0B02E1
:1010800042EA0E0223F8252084B30A8929E04FF0B2
:10109000060808EBC308C44407EB4C07E45BC4F341
:1010A0000904A54203D32D1B8D6101D00BE08E6195
:1010B000066836F8235005EA090585F4005545EA27
:1010C0000A0526F82350520609D40B78056835F82E
:1010D000232002EA0B0242EA0E0225F823202CB15B
:1010E0004A8949690068234602F0F0FF2046BDE8BE
:1010F000F09F2DE9F05F054600680C465FEA426C00
:1011000016468B692278B0F850C048F68F774CF2BB
:1011100080094FF6FF7B4FF4004E4FF4806A4FF08A
:1011200000017BD54FF0020808EBC208E0440AEB4F
:10113000480C30F80C00C0F30900834211D91B1A87
:10114000A3610FD0730407D52E6836F822303B40D8
:1011500043EA090326F8223094F82420012A50D0CB
:101160004EE1A161607810B1012813D01AE028681F
:10117000B0F85030184400EB0210B0F8042422F408
:10118000F842A0F80424B0F8042442F40042A0F885
:10119000042407E02868B0F85030184400EB02102F
:1011A000A0F804146278286812B1012A11D018E05E
:1011B000B0F850100844217800EB0110B0F80C147E
:1011C00021F4F841A0F80C14B0F80C1441F40041DB
:1011D00005E0B0F850201044227800EB0210A0F88F
:1011E0000C1421782846FFF7AAFE7004B8D52178A0
:1011F0002A6832F82100384040EA090022F821002C
:10120000FEE0626902446261E2690244E2612369CC
:10121000226A9A4203D31846111A04E038E084F88F
:1012200024100AB110462162617811B1012923D03E
:101230002BE02968B1F850201144227801EB02110B
:1012400001F2044148B13E280FD84208C30700D03C
:10125000521C0BEA82220A8017E00A8822F4F84224
:101260000A800A8842F40042F5E74209C30600D129
:10127000521E4EEA8222EEE72968B1F8502011444E
:10128000227801EB0211A1F8040483B22289B3E0B1
:101290004FF0060808EBC208E0440AEB480C30F8AF
:1012A0000C00C0F30900834211D31B1AA3610FD0B5
:1012B000730407D42E6836F822303B4043EA090312
:1012C00026F8223094F82420012A50D098E0A16119
:1012D000607810B1012813D01AE02868B0F85030B7
:1012E000184400EB0210B0F8042422F4F842A0F8ED
:1012F0000424B0F8042442F40042A0F8042407E0D7
:101300002868B0F85030184400EB0210A0F804141C
:101310006278286812B1012A11D018E0B0F8501094
:101320000844217800EB0110B0F80C1421F4F841C6
:10133000A0F80C14B0F80C1441F4004105E0B0F82A
:1013400050201044227800EB0210A0F80C142178F1
:101350002846FFF7F4FD700452D42278296831F84A
:101360002200384040EA090021F8220048E0626982
:1013700002446261E2690244E2612369226A9A429C
:1013800003D31846111A216204E00AB11046216203
:1013900084F824106278296812B1012A22D029E049
:1013A000B1F850201144227801EB021101F20C41F6
:1013B00048B13E280FD84208C30700D0521C0BEAA0
:1013C00082220A8016E00A8822F4F8420A800A88FB
:1013D00042F40042F5E74209C30600D1521E4EEA2C
:1013E0008222EEE7B1F850201144227801EB02117D
:1013F000A1F80C04628983B26169286802F084FE56
:1014000021782A6832F8210048F6BF73184080F02E
:10141000300048F28003184322F821000020BDE884
:10142000F09F01F0070101EB810100EBC100D0F852
:10143000840170472DE9F04104460F0601F00700D2
:1014400000EB800104EBC1014FF001064FF00005F5
:1014500003D581F82960283103E081F8695101F54D
:10146000B47108700A61CB704A7802B1C881022B4E
:1014700000D10D7194F8A802012809D084F8A8625F
:10148000206802F0E9F8284684F8A852BDE8F08107
:101490000220FBE770B50C4601F0070505EB85015E
:1014A00000EBC101C1E95F230022C1F8842181F86A
:1014B000692181F8685101F5B4716207006802F092
:1014C000EBFA002070BD70B504460D4601F0070030
:1014D0006168884201D9012070BD29064FF00006DD
:1014E0004FF0010207D500EB800104EBC10181F848
:1014F0002920283107E005EB850104EBC10181F8C3
:10150000696101F5B4718A70087094F8A802012825
:1015100007D084F8A822206802F0A5FA680702D054
:1015200006E0022070BD04F52C71206802F05DFA1F
:1015300084F8A862002070BD70B50C4601F0070564
:1015400005EB850100EBC101C1E90F23012281F800
:101550004C208B6400234B6481F8292001F8285F1C
:101560006207006802F098FA002070BD1FB50446BB
:10157000006802F0A7FD000402D5204600F0FEFE40
:10158000206802F09FFD40050CD5206830F8441F0C
:1015900021F480610180204600F01EF900212046E0
:1015A00000F035F9206802F08DFD400405D5206873
:1015B00030F8441F21F480410180206802F082FD50
:1015C000800405D5206830F8441F21F400510180C3
:1015D000206802F077FDC00414D5206830F8401F61
:1015E00021F004010180206830F8401F21F008013B
:1015F0000180204600F003F9206830F8441F21F4F0
:1016000080510180206802F05DFD00053ED5226812
:101610000020694632F8203021F81030401CC0B25A
:101620000828F7D332F8400F40F0010010802068FE
:1016300030F8402F22F0010202802068B0F84420E8
:101640005205FBD530F8442F22F48062028000203E
:10165000236831F8102023F82020401CC0B208284D
:10166000F6D3206830F8401F41F00801018020685F
:1016700030F8441F21F400610180206830F8401FD9
:1016800041F004010180204600F0F6F8206802F0E5
:1016900019FD800508D5206830F8441F21F4007139
:1016A0000180204600F0AFF8206802F00BFDC00575
:1016B00005D5206830F8441F21F4807101801FBDDA
:1016C0002DE9F04186B0040004D094F8A902002569
:1016D00020B108E0012006B0BDE8F08184F8A852EE
:1016E000204600F05BF8032084F8A902206802F08D
:1016F00075F904F11001142288466846FEF746FD8C
:1017000094E80F0002F0D4F80226D0BB0021206834
:1017100002F0F2FC002001270FE000BF00EB800187
:1017200004EBC10181F8297001F8280FC881CD7040
:101730000D614D61401CC0B28D6161688142EDD880
:10174000002011E000EB800104EBC10181F8695138
:1017500081F8680181F86B51C1F87851C1F87C516A
:10176000401CC0B2C1F8805161688142EAD814229D
:1017700041466846FEF70AFD94E80F0002F025F99D
:1017800010B184F8A962A5E784F8245084F8A972FE
:10179000206802F018F900209DE7000008B50068F5
:1017A0000B49884212D10B48C16941F40001C16163
:1017B000C069002200F40000009011461420FFF7D9
:1017C0006DFBBDE808401420FFF75ABB08BD0000C0
:1017D000005C00400010024070B50446806801259E
:1017E000022801D0FEF711FF2946D4F8E80201F0E3
:1017F0000AFDD4F8E802BDE8704001F0C6BCD0F89C
:10180000E80201F0EABCD0F8E80201F0F0BC10B543
:10181000044690F8A80201280BD0012084F8A80201
:1018200084F82410206802F069FC002084F8A802E3
:1018300010BD022010BDD0F8E82200F52C71104632
:1018400001F0EDBC10B5044690F8A802012810D0B4
:10185000012084F8A802206802F024FC012120461F
:10186000FFF76CFB206802F0ACF8002084F8A802B7
:1018700010BD022010BD000010B50446D0F8E802EB
:1018800001F00CFDA069002804D00348016841F074
:101890000601016010BD000010ED00E02DE9F843E5
:1018A00005460078354CC00754D0E0690026C000DA
:1018B00008D4E06940F08050E061E069012600F062
:1018C000805000902E480168C90512D401688046F6
:1018D00041F480710160FEF7C9FF074605E000BFD3
:1018E000FEF7C4FFC01B642823D8D8F80000C00549
:1018F000F6D5206A10F4407021D0A98801F4407117
:1019000081421CD0206A1F49012220F440700A60E5
:1019100000220A602062C00711D0FEF7A7FF074629
:1019200041F2883808E000BFFEF7A0FFC11B414527
:1019300002D90320BDE8F883206A8007F4D5206A25
:10194000696820F44070084320621EB1E06920F00D
:101950008050E0612878800705D56068A96820F488
:101960004040084360602878C00605D56068696912
:1019700020F48000084360600020DBE70010024094
:1019800000700040400442422DE9F0470F46050038
:1019900061D0434E306800F00700B84209D2306889
:1019A00020F0070038433060306800F00700B8428C
:1019B00051D128683B4C810712D5400703D5606898
:1019C00040F4E06060602878000703D5606840F468
:1019D000605060606068A96820F0F00008436060B3
:1019E0002878C00728D06868012810D0216802280C
:1019F00010D0890700292EDA616821F00301014324
:101A00006160FEF733FF804641F288390DE02168BE
:101A10008903EFE78901EDE7FEF728FFA0EB080156
:101A2000494502D90320BDE8F0876068696800F085
:101A30000C00B0EB810FEFD1306800F00700B84226
:101A40000BD9306820F0070038433060306800F070
:101A50000700B84201D00120E5E72878400705D506
:101A60006068E96820F4E060084360602878000757
:101A700006D56068296920F4605040EAC1006060C2
:101A800000F028F86168084AC1F30311515CC840AE
:101A90000649086006480068FFF7B4F90020C2E76D
:101AA00000200240001002401C42000820000020DC
:101AB000180000200448054900684968044AC1F339
:101AC0000221515CC84070472000002000100240F5
:101AD0002C42000812A185B00FC98DE80F0014A098
:101AE000144A006804905168134801F00C03042B59
:101AF00010D0082B0ED1C1F38343C9031DF8030096
:101B00000AD5516804AAC1F34041515C0A4A5043C6
:101B1000B0FBF1F005B0704708494843FAE7000010
:101B200002030405060708090A0B0C0D0E0F10101E
:101B3000010200000010024000127A0000093D007E
:101B40002DE9F84F040070D02078C04DC00749D06F
:101B50006868C0F38100012807D06868C0F381007D
:101B6000022809D16868C00306D52868800339D5E2
:101B700060680028E7D035E06068B0F5803F0BD0A2
:101B800010B1B0F5A02F11D0286820F48030286063
:101B9000286820F4802002E0286840F48030286023
:101BA000606890B1FEF762FE06460AE0286840F4DD
:101BB00080202860F0E700BFFEF758FE801B6428F5
:101BC00073D828688003F7D50CE0FEF74FFE064671
:101BD00005E000BFFEF74AFE801B6428F0D82868A5
:101BE0008003F7D420789A4E80074FF001094FF018
:101BF000000839D5686810F00C0F07D06868C0F38A
:101C00008100022809D16868C00306D428688007CB
:101C100014D52069012808D110E02069B0B1C6F8B8
:101C20000090FEF723FE074605E00AE1FEF71EFEE0
:101C3000C01B0228C4D828688007F7D528686169C6
:101C400020F0F80040EAC10028600DE0C6F80080EE
:101C5000FEF70CFE074604E0FEF708FEC01B022854
:101C600023D828688007F7D4207800072CD5794836
:101C7000A169D9B1C0F80090FEF7F8FD074604E06D
:101C8000FEF7F4FDC01B02280FD8686A8007F7D55D
:101C900071484FF4FA510068B0FBF1F0009000BFBA
:101CA0000098411E0091FAD20EE080E0C0F800805A
:101CB000FEF7DCFD074604E0FEF7D8FDC01B022856
:101CC00075D8686A8007F7D42078400760D5E8693E
:101CD0000027C00008D4E86940F08050E861E86956
:101CE000012700F0805000905C480168C90513D4BA
:101CF0000168834641F480710160FEF7B7FD8246BA
:101D000006E000BFFEF7B2FDA0EB0A0064284ED843
:101D1000DBF80000C005F5D5E06801280AD008B15D
:101D2000052813D0286A20F001002862286A20F0D4
:101D3000040002E0286A40F001002862E06841F2F5
:101D4000883B98B1FEF792FD82460BE0286A40F08E
:101D500004002862EEE700BFFEF788FDA0EB0A0151
:101D600059455AD8286A8007F6D50CE0FEF77EFD63
:101D7000824605E0FEF77AFDA0EB0A0159454CD8F2
:101D8000286A8007F6D41FB1E86920F08050E86126
:101D9000E06988B36968C1F38101022944D002284F
:101DA000C6F8608004D0FEF761FD044638E034E0F8
:101DB000FEF75CFD074604E0FEF758FDC01B022855
:101DC0002BD828688001F7D4206AB0F5803F05D170
:101DD0006868A16820F4003008436860D4E908010D
:101DE0000843696821F4741108436860C6F860907C
:101DF000FEF73CFD044606E025E000BFFEF736FD99
:101E0000001B022809D828688001F7D51BE000BF15
:101E1000FEF72CFD001B022802D90320BDE8F88F35
:101E200028688001F4D40EE00128F7D06868226A9F
:101E300000F48031914204D1616A00F4701088424C
:101E400001D00120EAE70020E8E70000001002408E
:101E50000000424280044242200000200070004006
:101E600010B5401EB0F1807F01D3012010BD4FF0AE
:101E7000E02460610F21601702F06CF90020A0617E
:101E800007202061002010BDFEE701684A69D243A7
:101E900052050FD46FF480624A61002140F8301F70
:101EA000202242738173026942F0040202610173CD
:101EB00001207047002070472DE9F84F0446C06AA2
:101EC0001E4693460D4621680A6842F480620A6005
:101ED000082807D0012805D010F5803F02D0206BDC
:101EE000112804D12068016841F4807101604FF02D
:101EF00001195B46002249462046009600F0C6F8CC
:101F00004FF4007840B120680068C00501D5C4F8DE
:101F100040800320BDE8F88F2069DFF884A0B0F589
:101F2000804F0FD00620216800EAD51747F0F00057
:101F3000086133465A460AF10601204600F0DAF8F5
:101F400058BB03E0E8B240F001001CE02168E8B2B1
:101F5000086133465A465146204600F0CBF8E0B9B6
:101F60002068416981690091016841F480710160D4
:101F70005B46002249462046009600F087F800287C
:101F8000C1D147F0F1002168086133465A465146F5
:101F9000204600F0AFF80028BCD00120BAE70000CE
:101FA00002000100F8B50446C06A1E460D461746F9
:101FB000082807D0012805D010F5803F02D0206BFB
:101FC000122804D12068016841F480710160134631
:101FD00000224FF001112046009600F057F840B162
:101FE00020680068C00502D54FF40070206403200B
:101FF000F8BD2069B0F5804F0ED00620216800EAB8
:10200000D51040F0F000086133463A460B492046AF
:1020100000F070F878B902E005F0FE0000E0E8B2E8
:1020200021680861054933463A46891F204600F079
:1020300061F80028DCD00120F8BD00000800010094
:1020400070B516460D4604460DE02046FFF71DFF0D
:1020500008B1012070BD681C05D0FEF707FC801B8D
:10206000A84207D835B120684069C0434007ECD486
:10207000002070BD002044F8300F20216173A07350
:10208000216941F0200121612073E2E72DE9F04749
:102090001E4690460D460446C1F30747DDF82090E2
:1020A00008E0701C06D0FEF7E1FBA0EB0900B0428F
:1020B0000FD876B12068012F18D0806925EA00007A
:1020C0000004000C14D000214145EAD00020BDE8F6
:1020D000F087002044F8300F20216173A07321693C
:1020E00041F02001216120730120F0E74069E5E71C
:1020F0000121E9E72DE9F0479A4691460E4604464C
:1021000000254FF02008C1F3074725E0206840690B
:10211000C043400514D42068016841F40071016097
:1021200021686FF480604861256384F83D8084F8FD
:102130003E50206C40F00400206484F83C501FE0C6
:10214000B9F1FF3F08D0FEF791FBA0EB0A0149452A
:102150000CD8B9F1000F09D02068012F13D0806985
:1021600026EA00000004000C0BD0CFE744F8305FF3
:1021700084F80D80A573206940F02000206125734C
:102180000120BDE8F0874069EAE72DE9F04100252C
:1021900090460E460446202717E04069C043C0061B
:1021A0000CD454F8301B6FF01000486144F81059FB
:1021B0006777A577206A2062257717E0FEF756FB40
:1021C000A0EB0800B04208D83EB120684169C9437D
:1021D0004906E2D40020BDE8F08144F8305F67731F
:1021E000A573206940F02000206125730120F2E7EB
:1021F00070B516460D4604460DE02046FFF745FE35
:1022000008B1012070BD681C05D0FEF72FFB801BB4
:10221000A84207D835B120684069C0430006ECD415
:10222000002070BD002044F8300F20216173A0739E
:10223000216941F0200121612073E2E7F0B500231C
:102240000A24302537261F4611E000BFB4EB107F6B
:1022500002D905EB107C01E006EB107C01F813C0FD
:1022600001EB430C00015B1C8CF80170DBB2934264
:10227000ECD3F0BD70B586B00024184800940194EA
:1022800002940394816941F020018161816901F028
:1022900020010491816941F008018161816901F0A7
:1022A00008010491816941F00401816180690C4E4B
:1022B00000F004004FF48075049000222946304657
:1022C000FEF7CEFA01200095CDE90104022003902B
:1022D00069463046FEF7C0F906B070BD00100240F6
:1022E000000801400D4810B50B4901600C494160E0
:1022F00000214FF480428160C0E903124161816195
:10230000C1610162FEF7B8FA002803D0BDE81040B1
:10231000FEF77BB910BD0000005800407802002095
:10232000A086010010B500220F49104800F0F8FD0A
:1023300008B1FEF76AF90E490C4800F0D5FF08B164
:10234000FEF763F90B49094800F0FAFB08B1FEF704
:102350005CF9064801F01EF8002803D0BDE81040E3
:10236000FEF753B910BD000024000020CC0200206D
:102370006001002074000020FEE770472DE9F84F4F
:10238000044640F68F7B48F60F7A4FF002094FF46F
:10239000806874E1B0F8441011F00F063AD030F8BC
:1023A000267039047DD530F8261001EA0B0141F082
:1023B000800120F8261006EB860004EBC00595F896
:1023C000740105F5B47500286CD0E87802286AD04D
:1023D0002878226832F8201048F68F73194048F2A6
:1023E000C003194322F820102878D4F800C03CF824
:1023F0002010BCF8502049047ED509EBC00011180C
:1024000008EB41003CF800008005800D009074D07E
:102410002A89D8E0C9062DD4018801EA0A0141F4CD
:1024200000410180216804F12805B1F850202B7883
:1024300009EBC300024408EB4200085AC0F309004C
:102440006064E16B0844E06300212046FEF777FDFD
:1024500094F8240000289CD0A869002899D194F809
:102460002400216840F08000A1F84C00002084F88E
:10247000240004E1018804F5B4750A0521D5B0F8FB
:1024800050202B78062101EBC3010A4408EB4201DE
:10249000405A04F52C71C0F30903EB61EA88206807
:1024A00002E0ACE068E07AE001F010FE2168088804
:1024B00000EA0B0040F0800008802046FFF7BBF9DF
:1024C000DDE00904D5D5018801EA0B0141F0800166
:1024D00001802068B0F850202B78062101EBC30161
:1024E0000A4408EB4201405A83059B0DEB6110D072
:1024F000696971B1EA8801E058E056E0206801F0AE
:10250000E5FDE96968690844686100212046FEF735
:102510001FFD2068018809052DD4B0F8501008442B
:10252000296900F20C4051B13E2910D84A08C90768
:1025300000D0521C4FF6FF7101EA82210FE00188A2
:1025400021F4F8410180018841F4004107E04A0983
:10255000C90600D1521E4FF4004141EA8221018098
:10256000206801884BF68F72114081F4405148F287
:1025700080021143018082E0D4F800C0BCF8501002
:102580002A78062000EBC200014408EB41003CF829
:1025900000008005800D00901AD0EA8813E03A46CA
:1025A00029462046FEF732FD009011E0062101EB9E
:1025B000C000111808EB41003CF800008005800DB8
:1025C000009005D06A8903466046696901F07EFD86
:1025D000E96900980844E8616969009808446861FD
:1025E000A86918B129690098814204D92978204640
:1025F000FEF7AEFC03E02946206801F04DFA3806EC
:102600003DD506EB860004EBC001206830F826209B
:1026100002EA0A0242F4004220F8262091F82B0038
:102620002831032804D018B1022824D1F80522D477
:102630002368B3F850200D7809EBC500024408EB7D
:102640004200185A8A69C0F3090082420CD9121A52
:102650008A610BD04A6902444A61CA691044C86160
:10266000206801F019FA0AE000208861E9B22046EA
:10267000FEF765FC03E03A462046FEF73AFD206887
:10268000B0F8441009043FF585AE0020BDE8F88F8E
:1026900070470000164917484A788B7803EB0222EE
:1026A000CB7803EB02220B7903EB022282604B7999
:1026B0000022012B06D0022B06D0032B07D0042BBF
:1026C00008D10EE0428005E04FF4C06301E04FF412
:1026D000806343808979012906D0022900D1828054
:1026E00070474FF40073F4E74FF4807181807047B6
:1026F000B00100200400002000B585B041208DF815
:1027000000002E48C1788DF8011081788DF80210F4
:1027100041788DF8031000788DF804002848C17ABC
:102720008DF80510817A8DF80610417A8DF8071022
:10273000007A8DF808002348C17A8DF80910817A53
:102740008DF80A10417A8DF80B10007A8DF80C0084
:10275000FDF7E8FE010A8DF80D108DF80E00174800
:1027600001210838022243884BB1B3F5007F0ED017
:10277000B3F5806F09D0B3F5C06F0BD102E08DF8CF
:102780000F1007E08DF80F2004E0032300E004237E
:102790008DF80F30808828B1B0F5807F04D18DF896
:1027A000101001E08DF8102044208DF81100142144
:1027B0006846FDF713FF05B000BD00000C000020C7
:1027C00098010020A40100201CB51B2400F08EF805
:1027D0004FF4FA700090012301AA21460248FEF747
:1027E0000FF99DF804001CBD78020020704700001E
:1027F0002DE9F05F80468946187803211C469246F1
:10280000B1EB101F01D1012100E0002182278B468E
:1028100000F00F065FF00005F8B218F8051001F09F
:1028200087FC6D1C7F1C032DF6DB85275FF0000500
:10283000F8B219F8051001F07BFC6D1C7F1C032D0C
:10284000F6DB88275FF00005F8B21AF8051001F0F2
:102850006FFC6D1C7F1C022DF6DB46F0B001802062
:1028600001F066FC6178812001F062FC46F0100105
:10287000802001F05DFC0A20FDF7DCFE46F020011F
:10288000802001F055FC174D8F20FFF79DFF286039
:102890008007F9D59420FFF797FF134E30609520FD
:1028A000FFF792FF7060316800EB0120B060962066
:1028B000FFF78AFF0C3630609720FFF785FF7060C6
:1028C000316800EB0120B0608F20FFF77DFF2860AA
:1028D000400704D42178802001F02AFCD4E7BDE829
:1028E000F09F000000000020980100201CB5B022DD
:1028F0008DF804208DF805004FF4FA7000901A212D
:10290000022301AA0148FEF79DF91CBD78020020B0
:10291000FEF75EBA30B595B028216846FDF74FFC4A
:1029200014210AA8FDF74BFC18210FA8FDF747FC5E
:1029300001210804CDE9001000240294022504912D
:10294000CDE90750000109906846FFF7F9F80F201C
:10295000CDE90A056802CDE90C4001210AA80E94D0
:10296000FFF712F810200F90800414900FA8FEF7C4
:1029700095FF15B030BD70472DE9F041D0F8C03259
:10298000D0F8B822CAB101EB810500EB850400261E
:10299000E7693FB103EBC5039B6BB7FBF3F503FBA3
:1029A000157323B1C2F814620020BDE8F081002342
:1029B0001A46E66100F07BFCF6E70220F5E770B509
:1029C0000546D0F8B84200F076FBC4F80C02D5F802
:1029D000B80248B1D5F8BC12D4F80402CA6804F5AC
:1029E00003719047002070BD022070BD70B5044691
:1029F0000026812100F0B2FA002501212046E5627F
:102A000000F0ACFA82212046C4F86C5100F0A6FA1E
:102A10002564D4F8B80248B1D4F8BC0204F52E7489
:102A200040688047206800F012FE2560304670BD87
:102A300010B5D0E9AE4159B194F80002FF2807D093
:102A40008B6894F8012221469847FF2084F8000201
:102A5000002010BD0A210180004870478800002036
:102A60004321018000487047D800002043210180A5
:102A700000487047940000204321018000487047BF
:102A80001C0100202DE9F04104460026007C4FF493
:102A90000077012590B3402302228121204600F0D7
:102AA0005FFB4023E56202220121204600F058FB33
:102AB0000823032282212046C4F86C5100F050FB09
:102AC0004FF40770256400F0C3FDC4F8B802F8B1F4
:102AD0000546D4F8BC02006880470020C5F81402FF
:102AE000C5F81802207CD5F8042298B140230121B2
:102AF000204600F041FB3046BDE8F081FFE73B4651
:102B000002228121204600F02BFB3B46E562CAE70A
:102B10000126F0E73B46EAE710B5D0F8B81269B1F4
:102B2000027C002AD1F8042205D04023012100F0C4
:102B300023FB002010BD4FF40073F7E7022010BD07
:102B400002460220002902D00020C2F8BC127047C1
:102B5000D0F8B802C0F8041200207047D0F8B802CC
:102B6000C0F81022C0F80812002070472DE9FC417F
:102B70000546D0F8B87200208DF80000ADF80400CA
:102B8000064608780C4610F0600121D020293BD180
:102B9000E288AAB10006607807D5D5F8BC128B6828
:102BA00039469847E288394626E087F80002A0793E
:102BB00087F80102E2883946284600F06AF828E0E2
:102BC000D5F8BC12607800228B682146984720E037
:102BD000607820B10A2809D00B2815D110E095F8AB
:102BE0009C02032810D1022201A905E095F89C025D
:102BF000032809D101226946284600F064F808E05C
:102C000095F89C02032804D02146284600F036F8A7
:102C100002263046BDE8FC8110B5D0F8B812A1B14B
:102C2000D1F814220AB1012010BD0122C1F81422EA
:102C3000D1F810220263B1F8102293B2D1F8082221
:102C4000812100F034FB002010BD022010BD10B522
:102C5000D0F8B42252689047002010BD134610B53A
:102C60000A46002100F088FA002010BD134610B576
:102C70000A46002100F01BFB002010BD10B50446E1
:102C8000802100F0F9FA2046BDE81040002100F054
:102C9000F3BA10B50323C0F85C21C0F89432C0F831
:102CA000602113460A46002100F066FA002010BD9C
:102CB00010B505210023C0F894121A46194600F0F9
:102CC0005BFA002010BD10B50223C261C0F8943237
:102CD000026213460A46002100F0E9FA002010BD06
:102CE00010B504210023C0F894121A46194600F0CA
:102CF000DEFA002010BD000010B50A46024903A00C
:102D000000F0DEF8004810BD900500204344432049
:102D1000436F6E66696700001220088000487047A4
:102D20004400002010B50A46024903A000F0C8F88C
:102D3000004810BD9005002043444320496E74654F
:102D400072666163650000000420088000487047D7
:102D50004000002010B50A46024903A000F0B0F878
:102D6000004810BD90050020484954737A20524114
:102D7000435748205465616D0000000010B50A46B5
:102D8000024903A000F09CF8004810BD9005002007
:102D90005241435748204144353933330000000045
:102DA00010B51A2008800A480168001D0468001D3B
:102DB0000068081809D008220649FFF73FFA0549BC
:102DC000042210312046FFF739FA0248801E10BD58
:102DD000E8F7FF1F5A000020F8B504460020ADF8C0
:102DE000000048880D46010A082948D2DFE801F0B2
:102DF0004704091747473C45D4F8B012207C0A68BD
:102E000019E0207C02260028D4F8B40205D0C16A5B
:102E100068468847014646703EE0816AF8E7C0B2DE
:102E200006282CD2DFE800F0030A1014181CD4F88E
:102E3000B002426805E0694690471CE0D4F8B00251
:102E40008268E2B1207CF6E7D4F8B002C268F8E705
:102E5000D4F8B0020269F4E7D4F8B0024269F0E7AE
:102E6000D4F8B0028269ECE7207C40B9D4F8B4020F
:102E7000416B6846884701460EE0207C20B1294618
:102E80002046FFF7FBFEF8BDD4F8B402016B68469C
:102E90008847014607204870BDF8000048B1EA881D
:102EA00052B1824200D90246ADF800202046FFF719
:102EB0000AFFE8880028E6D12046FFF711FFF8BD99
:102EC00070B5002300281ED00446002502E06D1CCA
:102ED000EDB2641C2678002EF9D1022404EB4504DF
:102EE00014801278CA545B1C0322CA5400245B1C51
:102EF00006E0CA545B1CDAB28C54521CD3B2401C9C
:102F00000278002AF5D170BD01004FF0000004D016
:102F1000012901D0022901D0022070470120704709
:102F200010B580B1D0F8B43213B10023C0F8B43278
:102F300009B1C0F8B012012180F89C12027000F0B3
:102F4000BFF8002010BD022010BD10B5D0F8C0029F
:102F5000FEF72EF8BDE81040FFF7D6BF10B5D0F849
:102F6000C002FDF7FFFFBDE81040FFF7CDBF2DE920
:102F7000F0411746044651B1D4F8B40242691AB17F
:102F800094F89C02032851D00220BDE8F081D4F8C7
:102F90009432002504F11400022B03D0042B3AD004
:102FA000C3B33CE0D0E903639E4207D9F11AC16084
:102FB0008AB239462046FFF759FE12E08068B0FB1E
:102FC000F3F103FB110199B9984211D3D4F8981287
:102FD00088420DD2002211462046FFF747FEC4F872
:102FE000985200231A461946204600F0C5F816E00C
:102FF000D4F8B402C16829B194F89C02032801D125
:10300000204688478021204600F036F92046FFF709
:103010004FFE04E0FFE78021204600F02DF994F8F0
:10302000A002012804D184F8A05201E02046904774
:103030000020AAE770B51546044649B1D4F8B40299
:1030400082691AB194F89C02032830D0022070BD26
:10305000D4F8941204F5AA70032902D005291ED0D1
:1030600027E0D0E903218A420BD9531AC3600846EE
:10307000834200D303469AB229462046FFF7EEFD6D
:1030800017E0D4F8B402016929B194F89C0203282E
:1030900001D1204688472046FFF722FE09E00020A4
:1030A0000146C4F89402204600F0E6F801E020460C
:1030B0009047002070BDD0F8C002FEF7B2B9000002
:1030C00010B504461C481D49C0F8E842C4F8C002C7
:1030D0000160082141600221816000218161C1619C
:1030E0000162FEF7EDFA08B1FDF78FFA0022D4F87D
:1030F000C0021823114604F53074FDF701FF582370
:10310000002280212068FDF7FBFEC02300228121E0
:103110002068FDF7F5FE4FF4887300220121206836
:10312000FDF7EEFE4FF48073002282212068FDF748
:10313000E7FE002010BD0000D8090020005C004020
:103140000A0601F07F01D0F8C00201EB810100EB1B
:10315000C10002D590F82A00704790F86A017047C4
:1031600010B51C461346D0F8C0022246FEF762F99D
:10317000BDE81040FFF7C8BE10B5D0F8C002FEF79A
:1031800089F9BDE81040FFF7BFBE70B500220446C4
:1031900040231146FFF7E4FF40260125C4F864618F
:1031A0003346002280212046C4F85851FFF7D8FF4B
:1031B0006662A56184F89C520020C4F894026060A5
:1031C000C4F8A402D4F8B80228B1D4F8B40200219B
:1031D000426820469047002070BD90F89C12042958
:1031E00003D190F89D1280F89C120020704710B512
:1031F00090F89C12032904D1D0F8B412C96901B126
:103200008847002010BD01740020704710B5D0F829
:10321000C002FEF7FCFABDE81040FFF775BE70B5BE
:10322000044600F52A70054600F04AF80120C4F86B
:103230009402B4F8AE02C4F8980294F8A80210F010
:103240001F010AD001290DD0022910D000F0800101
:10325000204600F011F8002070BD2946204600F0FD
:103260009EF8F8E72946204600F0CAF9F3E7294618
:10327000204600F01DF9EEE710B5D0F8C002FEF7C9
:1032800022F9BDE81040FFF73FBE10B5D0F8C002EC
:10329000FEF7D8FABDE81040FFF736BE90F89C1252
:1032A00080F89D12042180F89C120020704710B510
:1032B000D0F8C002FEF740F9BDE81040FFF724BE89
:1032C0000A7802704A7842708A78CB7802EB03223F
:1032D00042800A794B7902EB032282808A79C9798C
:1032E00002EB0121C18070470246002011B1C2F8F3
:1032F000B41270470220704710B5D0F8B4220224EF
:103300001AB11268904700B90024204610BD000091
:1033100070B50E461E4D897804462970012931D8B2
:1033200094F89C0202280BD003280FD03146204687
:10333000FFF7A4FC29782046BDE87040FFF787BC62
:10334000D9B10320616084F89C0209E071B1606822
:10335000884212D0C1B22046FFF779FC297861601B
:103360002046FFF7C9FF02280CD006E0022084F8AF
:103370009C0220466160FFF76AFC2046BDE8704071
:10338000FFF7AEBC31462046BDE87040FFF776BC83
:103390008400002010B5FFF778FF002010BD2DE954
:1033A000F0410A78002612F0600208D0202A01D0ED
:1033B000402A70D1D0F8B422926890476DE04B78E3
:1033C000002201250A2B66D2DFE803F0405D655735
:1033D000650805652C29FFF7FFFC5EE00446888838
:1033E000D8B9C888C8B94888802816D200F07F07A5
:1033F00094F89C02032810D084F89E723946204627
:10340000FFF704FF2046FFF76BFC1FB1022084F892
:103410009C0242E084F89C523FE020463BE0FFF7EC
:1034200077FF3AE0CB88012B35D190F89C32012B05
:1034300004D0022B02D0032B2DD104E082600122A4
:1034400000F1080116E00122011D13E090F89C2212
:10345000012A03D0022A01D0032A1CD1CA88022AD9
:1034600019D1C560D0F8A41209B10321C1600222AC
:1034700000F10C01FFF727FC0FE0498801290CD16E
:10348000C0F8A45211E090F89C32012B08D0022B16
:1034900006D0032B04D0FFF7F1FB3046BDE8F081E6
:1034A00049880129F9D1C0F8A422FFF719FCF4E7F3
:1034B0002DE9F0410A46044610780027097910F0FA
:1034C00060030AD0202B01D0402B50D1D4F8B40295
:1034D00011468368204698478FE0C0F341100128C9
:1034E00006D05078D0B301282AD003283FD107E076
:1034F000D4F8B402114683682046BDE8F04118476D
:1035000094F89C02022802D0032872D10AE071B319
:1035100080296ED02046FFF7AFFE80212046FFF7BE
:10352000ABFE6AE0508838B931B1802904D0D08828
:1035300010B92046FFF7A0FE2046FFF7D1FB5CE064
:1035400094F89C020228E2D0032852D1508898BBFC
:103550004806F1D02046FFF7F8FCEDE7FFE794F8C6
:103560009C020026022803D0032842D112E040E04A
:1035700009B180293DD1080601F07F0000EB8000F1
:1035800004EB800101D5143101E001F5AA7102229A
:103590000E602AE0080601F00F0000EB800004EB4B
:1035A00080000AD5806920B301F07F0000EB800025
:1035B00004EB800514350BE01FE0D0F85801C0B1D2
:1035C00001F07F0000EB800004EB800505F5AA7593
:1035D00041B1802906D02046FFF7B2FD10B101208D
:1035E000286000E02E60022229462046FFF76BFB90
:1035F00003E011462046FFF741FB3846BDE8F08165
:1036000070B5054608780C4610F0600003D02028FD
:1036100001D0402816D195F89C02012803D0022839
:1036200001D003280ED1207901280BD8D5F8B40297
:10363000826828469047E188014306D12846FFF773
:103640004FFB02E02846FFF719FB002070BD7047D2
:1036500000487047B80700202DE9F0470C78002695
:1036600030F8243048F68F121340CA78002A7DD0F3
:10367000012A7CD0022A02D0032A7FD0012648F2F8
:103680008002134320F824300D7830F8254048F6A6
:103690008F731C402C43144320F825400D7B48F2C7
:1036A000C00C48F6BF744CF280074BF68F79EDB32F
:1036B00091F80080C24630F8285048F280181D402A
:1036C00045EA080520F82A50B0F8505091F80080DB
:1036D000054405EB0815B1F8088028F00108A5F8A5
:1036E0000084B0F8505091F80080054405EB0815AF
:1036F000B1F80A8028F00108A5F808844D78002D5B
:103700000D7830F825804FEA48487DD0B8F1000F99
:1037100007DA30F8258008EA030848EA070820F8A5
:1037200025800F7830F827506D0600E02CE006D594
:1037300030F827501D4045EA0C0520F82750CB787B
:103740000D78012B30F8253003EA040301D083F013
:103750002003134320F825300B7830F8231001EABA
:103760000901114320F82310304602E003E008E08D
:1037700004E0BDE8F08743F4007380E743F4C063DE
:103780007DE743F480637AE74D782DB3B0F850506D
:103790000F78054405EB0715CF8827F00107A5F83A
:1037A00000740F7830F827506D0606D530F8275092
:1037B0001D4045EA0C0520F82750CB78012B06D098
:1037C0000B7830F82310214081F02001C9E70B78F5
:1037D00030F823102140C4E7B0F850400D7804447D
:1037E00004EB0514CD8825F00105A4F80854B0F8C1
:1037F00050400D78044404EB05140D6904F20C44A8
:1038000075B13E2D14D800E030E04FEA550CED07BD
:1038100001D00CF1010C4FF6FF7505EA8C2511E083
:10382000258825F4F8452580258845F4004509E0DC
:103830004FEA551CED0601D1ACF1010C4FF40045E7
:1038400045EA8C2525800D7830F82540640405D59F
:1038500030F825401C403C4320F825400B7830F8D8
:10386000231001EA090181F440517AE7B8F1000F11
:1038700007DA30F8258008EA030848EA070820F844
:1038800025800F7830F827506D0606D530F8275080
:103890001D4045EA0C0520F827500D7830F82530FA
:1038A00003EA090383F44053134320F825308EE7DD
:1038B000002070472DE9F04391F80C804F780A788A
:1038C00048F6BF7C4BF68F7948F2800348F2C0057A
:1038D0004CF2800648F68F74B8F1000F28D0002F04
:1038E00030F822704FEA474748D0002F05DA30F809
:1038F00022702740374320F822700A7830F822706F
:103900007F0605D530F8227027402F4320F822701B
:103910000D7830F825202240324320F825200C78FD
:1039200030F8242002EA0C021A4320F824201AE07E
:103930007FB130F82260760605D530F82260264047
:103940002E4320F822600A7830F8221001EA0C0198
:103950000EE030F822506D0405D530F82250254095
:10396000354320F822500A7830F8221001EA090184
:10397000194320F822100020BDE8F083002F05DA5B
:1039800030F822702740374320F822700A7830F848
:103990002260760605D530F8226026402E4320F8B6
:1039A00022600E7830F8262022402A4320F8262074
:1039B0000C7830F8242002EA09021A4320F8242067
:1039C000C1E70020704700207047012120F8401F08
:1039D00000210180818001820846704730F8401F35
:1039E00021F43F410180002070470020704730B52E
:1039F0000A7BB2BB4A7848F68F7548F28004C2B1A0
:103A00000B7830F82320520607D530F823202A40BF
:103A100048F2C0052A4320F82320CA78012A20D082
:103A20000A7830F8221048F6BF73194081F020015F
:103A300014E00A7830F822305B0407D530F82230E1
:103A40002B404CF280052B4320F822300A7830F8C6
:103A500022104BF68F73194081F44051214320F816
:103A60002210002030BD10B54A780978002A48F2AB
:103A7000800330F8212005D048F6BF74224082F040
:103A8000100204E04BF68F74224082F480521A43F5
:103A900020F82120002010BD2DE9F0470E464B787C
:103AA000097B04464FF0000948F68F7248F2800AFD
:103AB0004FF6FF774FF40048012B09D000296ED054
:103AC000F07802286CD001286BD00120BDE8F08787
:103AD000B5693069854200D90546C9B1F17848F227
:103AE0008013022923D0317834F821001040184384
:103AF00024F82100306A401B3062307834F82010FE
:103B0000490671787ED500297DD001297CD03FE11E
:103B1000ABB2F2882046716900F0F6FAB4F85000B2
:103B20003178204400EB0110A0F80454EAE0316A37
:103B300081426AD9317834F821001040184324F8C2
:103B40002100306A401B3062307834F8201049067A
:103B500071786CD511B1012924D02AE0B4F8501045
:103B6000214401EB001000F20C404DB13E2D0FD866
:103B70006908EA0700D0491C07EA8121018018E0A2
:103B8000018821F4F8410180018841F40041F5E702
:103B90006909EA0600D1491E48EA8121EEE79CE165
:103BA000BCE126E2B4F85020111901EB0010A0F896
:103BB0000C547289ABB22046716900F0A5FA7069A5
:103BC000284470613169306A884202D9401B3062F2
:103BD00002E00546C6F82090707800287CD1B4F841
:103BE00050003178204400EB011000F204406DB128
:103BF0003E2D13D86908EA0700D0491C07EA812145
:103C0000018012E001E19BE0BBE084E0018821F447
:103C1000F8410180018841F40041F1E76909EA06B1
:103C200000D1491E48EA8121EAE7328965E011B1F5
:103C3000012921D027E0B4F85010214401EB0010F5
:103C400000F204404DB13E2D0FD86908EA0700D0BC
:103C5000491C07EA8121018015E0018821F4F8411F
:103C60000180018841F40041F5E76909EA0600D1C5
:103C7000491E48EA8121EEE7B4F85010214401EBD7
:103C80000010A0F804543289ABB22046716900F0EC
:103C90003BFA7069284470613169306A884202D900
:103CA000401B306202E00546C6F82090707800287C
:103CB0007ED1B4F850003178204400EB011000F2BE
:103CC0000C4055B13E2D10D86908EA0700D0491CB8
:103CD00007EA812101800FE072E0018821F4F841B8
:103CE0000180018841F40041F4E76909EA0600D146
:103CF000491E48EA8121EDE77289ABB2204671691D
:103D000000F002FA317834F8210048F6BF72104012
:103D100080F03000C0E1327834F8220048F68F633A
:103D2000184040EA0A0024F82200B4F85000327823
:103D3000204400EB02108BB2A0F804343289DDE796
:103D4000B4F85010214401EB001000F20C404DB1CA
:103D50003E2D0FD86908EA0700D0491C07EA8121E7
:103D6000018015E0018821F4F8410180018841F4C7
:103D70000041F5E76909EA0600D1491E48EA8121B8
:103D8000EEE7B4F85020111901EB0010A0F80C5424
:103D90007289ABB22046716900F0B6F970692844A7
:103DA00070613169306A884203D9401B306203E098
:103DB0006EE00546C6F82090002DA3D0707858B16B
:103DC00001287FF41EAFB4F850003178204400EB96
:103DD0000110A0F8045428E7B4F8500031782044CA
:103DE00000EB011101F204413E2D06D86808EA07F4
:103DF00000D0401C07EA802005E06809EA0600D1EF
:103E0000401E48EA802008800FE711B1012921D027
:103E100027E0B4F85010214401EB001000F20440F8
:103E20004DB13E2D0FD86908EA0700D0491C07EABA
:103E30008121018015E0018821F4F8410180018889
:103E400041F40041F5E76909EA0600D1491E48EA54
:103E50008121EEE7B4F85010214401EB0010A0F8E6
:103E600004543289ABB22046716900F04DF9706993
:103E7000284470613169306A884202D9401B30623F
:103E800002E00546C6F82090002D96D0707858B113
:103E900001287FF420AFB4F850100819317800EBF6
:103EA0000110A0F80C5427E7B4F8500031782044F2
:103EB00000EB011101F20C413E2D06D86808EA071B
:103EC00000D0401C07EA802005E06809EA0600D11E
:103ED000401E48EA802008800EE7B16930698142BF
:103EE00002D9091AB161B5E00846C6F81890B1E0E8
:103EF000088820F4F8400880088840F400400BE06F
:103F00003E2875D84208C00700D0521C07EA82201C
:103F100002E000BF48EA82200880B5E093B9B4F817
:103F200050003178204400EB0110316900F2044068
:103F300069B13E2913D84B08C90700D05B1C07EABA
:103F400083210180707888B1012832D03AE001885D
:103F500021F4F8410180018841F40041F1E74B0967
:103F6000C90600D15B1E48EA8321EAE7B4F8500095
:103F70003178204400EB0110316900F20C4049B166
:103F80003E290FD84B08C90700D05B1C07EA8321E4
:103F9000018017E0018821F4F8410180018841F493
:103FA0000041F5E74B09C90600D15B1E48EA8321B1
:103FB000EEE7B4F850100819317800EB0110318A9F
:103FC000A0F80C14F069A8B3317834F82100430448
:103FD00001D5430603D444F24003184254D134F8C7
:103FE0002100104048F2C002104324F821004BE0A9
:103FF0003CE0B1693069814202D9091AB16102E03D
:104000000846C6F818908BB9B4F85010327821449D
:1040100001EB021101F2044168B13E2813D84208B5
:10402000C30700D0521C07EA82220A80717889B146
:10403000012921D028E00A8822F4F8420A800A885F
:1040400042F40042F1E74209C30600D1521E48EA99
:104050008222EAE7B4F850103278214401EB0211D1
:1040600001F20C4100287FF44BAF41E74209C00642
:104070007FF450AF521E4DE7B4F85020111932783A
:1040800001EB0211A1F80C04317834F821004BF651
:104090008F72104080F4405040EA0A0024F821005A
:1040A000002013E50021A0F844104FF43F41A0F890
:1040B00040100020704700000148FDF757BA00008B
:1040C000D8090020B0F844007047000010B500EB9C
:1040D00042005C0800F5806009D000BF30F8042B76
:1040E00001F8012B120A01F8012B641EF6D1DA0740
:1040F00001D00088087010BD0020704711B98021E0
:10410000A0F84C100020704710B55B1C00EB42007B
:104110005B0800F5806009D011F8012B11F8014B04
:1041200042EA042220F8042B5B1EF5D110BDFEE705
:104130001CB50A468DF804004FF4FA708DF805207E
:1041400000901A21022301AA0148FCF77BFD1CBD47
:10415000780200200907090E002804DB00F1E020A6
:1041600080F80014704700F00F0000F1E02080F8A4
:10417000141D704702E008C8121F08C1002AFAD1B6
:1041800070477047002001E001C1121F002AFBD1D7
:10419000704700001CB5FCF723FEFEF7BBFB1B4875
:1041A000C16941F48001C161C06900F480000090E0
:1041B000FEF760F8FEF7B6F8FEF794F8DFF85090D7
:1041C000144D154C4FF480784FF48047002620782A
:1041D0000028FCD041464846FCF73AFB28784428A2
:1041E00011D1E87941280ED1FEF754FAA068FCF706
:1041F00063F8A188CDE90017002263881146FCF717
:104200006DF9FEF779FA2670E1E700000010024030
:1042100000080140B0010020040000200000000060
:104220000000000001020304060708090000000066
:10423000010203045442000800000020980100001D
:10424000860400081843000898010020301B000075
:10425000844100089122017B88130B1182101324E2
:10426000F413192D1B0849041A55041A7D041AA1C8
:104270000413F92C1B082508170403090412011460
:104280000202021640830440571D0201020341034B
:104290001A1A031355051B084F041A4B041A790404
:1042A00041130A0632022A407C1C09024347111DB1
:1042B000C03209048D1A020B1305241610010524BF
:1042C00001100901042402020524061701070582D2
:1042D00003081C1009047D320A1D07050102432C46
:1042E000070581070938442A40072A8107112B094D
:1042F00007440A3B044413852A1408ED294C086D31
:104300002BE81A31101A79101ABF04C11A6D182A35
:08431000611C19041A55040098
:0400000508000131BD
:00000001FF
